:020000020000FC
:0200000032C00C
:10003E003132332D3435362A373839FD2E303D2BBB
:100052005A6970686F206C756E696B61202001208F
:1000620063616C0008E00EBF0FE50DBF0FEF01BB2F
:1000720007BB0FE50DBF08E00EBF2AD1BDD028D1C6
:1000820027D10FE00ABB00EF3FEF30D1F0E0E2E50D
:1000920000270591003039F0013011F0C1D0F9CFBD
:1000A20000ECB3D0F6CF0CE0B0D02FEFA0E0662783
:1000B20077278827EEE3F0E0532FCCD03431D1F309
:1000C2003517C1F31FEF211301C08ED0E30F049146
:1000D200102FA6D0412F1F701A3008F0A0F44F70D5
:1000E2000AE0A13041F0609F10E0111230C0602D93
:1000F200640F68F1DFCF709F10E0111228C0702DDD
:10010200740F28F1D7CFA13019F0A395842FD2CF45
:100112004D3309F01CC08A3279F18B3289F18D326C
:10012200A9F08D3F89F100EC70D0C8D0C7D00EE79E
:1001320077D066277727AA27532F8CD03431E1F363
:100142003517D1F301E061D03FEF8CCF32C04CD0F4
:1001520005E666D002E764D002E762D00FE660D01F
:1001620002E75ED0532F76D03431E1F33517D1F365
:1001720001E04BD03FEF76CF679F902D1ED0D3CFBB
:10018200670F962F1AD0CFCF11272227162F23952C
:10019200171BE8F72A95170F922F0FD0C4CF1127FC
:1001A2002227162F2395171BE8F72A95170F922F50
:1001B2000895671B962F01D0B6CF8827903019F487
:1001C20000E32ED010C0692F7AE0E9DF83951F93F8
:1001D200903009F0F8CF803031F08A950F9110E31A
:1001E200010F1ED0F8CF089501E00FD071D070D06A
:1001F2000FE00BD02227089508E307D00FE005D0C7
:1002020001E003D006E001D0089502BBC098C19876
:10021200C29A00000000C29800E002BB0CD0089510
:1002220002BBC09AC198C29A00000000C29800E0C6
:1002320002BB01D008958F98C0980000C19A0000B7
:10024200C29A0000000000000000C298AF99F8CFE7
:100252008F9A089534E100EF0BBB000007EF0BBB50
:1002620000003DD0CF9B30E0CE9B31E0CD9B32E011
:10027200CC9B33E00BEF0BBB0000CF9B34E0CE9B5B
:1002820035E0CD9B36E0CC9B37E00DEF0BBB000099
:10029200CF9B38E0CE9B39E0CD9B3AE0CC9B3BE054
:1002A2000EEF0BBB0000CF9B3CE0CE9B3DE0CD9B15
:1002B2003EE0CC9B3FE000270BBB08951FEF1A9551
:1002C200F1F708951F9318EF1150F1F71F91089558
:1002D2002F9328E2F7DF2150E9F72F9108952F930A
:1002E20028ECF0DF2150E9F72F9108952F9325E0B4
:0A02F200F6DF2150E9F72F9108957F
:00000001FF
